:1000000002008AE5836003E49322A882E622E58366
:100010006004E4938003A882E6F822E5836004E4A8
:10002000938003A882E6F922E5836004E4938003C9
:10003000A882E6FA22E5836004E4938003A882E6BE
:10004000FB22E5836004E4938003A882E6FC22E5BA
:10005000836004E4938003A882E6FD22E5836004C4
:10006000E4938003A882E6FE22E5836004E49380A3
:1000700003A882E6FF22E4F5D075813078207A105B
:0D008000F608DAFC12011102000002007601
:1001000054726574277961007072616374696B6100
:1001100000020631752A01752B08752C01752D001A
:10012000752E00752F8075803875A00175A000753B
:1001300080C475A00175A00075800C75A00175A024
:1001400000E4F522F523E52324F8E52234FF5002EC
:1001500080028002802DE523252BF582E522352AB9
:10016000F583120003F58075A00375A0020523E551
:100170002370020522E52324F8E52234FF50028093
:100180000280D3E4F522F523E52324F8E52234FFA9
:100190005002800280028072A822A923E9C333F9A9
:1001A000E833F87409C399F525740098F524E5251A
:1001B00024F8E52434FF500280028002802DE525DA
:1001C000252DF582E524352CF583120003F5807585
:1001D000A00375A0020525E52570020524E5252468
:1001E000F8E52434FF5002800280D375808075A02A
:1001F0000175A0000523E52370020522E52324F8FC
:10020000E52234FF50028002808EE4F524F525E5D6
:100210002524FEE52434FF500280028002801F75F1
:10022000801475A00375A0020525E525700205243C
:10023000E52524FEE52434FF5002800280E1E52F0D
:1002400004F58075A00175A000E4F522F523E523EF
:1002500024F9E52234FF500280028002802DE5233C
:10026000252DF582E522352CF583120003F58075E6
:10027000A00375A0020523E52370020522E52324CF
:10028000F9E52234FF5002800280D3E52F04F58087
:1002900075A00175A000E4F524F525E52524FEE50B
:1002A0002434FF500280028002801F75801475A0E4
:1002B0000375A0020525E52570020524E52524FE29
:1002C000E52434FF5002800280E1E4F522F523E5C5
:1002D0002324F9E52234FF500280028002802DE5BC
:1002E00023252DF582E522352CF583120003F580B8
:1002F00075A00375A0020523E52370020522E523FE
:1003000024F9E52234FF5002800280D3E52F240334
:10031000F58075A00175A000E4F524F525E52524F8
:10032000FEE52434FF500280028002801F75801495
:1003300075A00375A0020525E52570020524E525B5
:1003400024FEE52434FF5002800280E1E4F522F52A
:1003500023E52324F9E52234FF5002800280028045
:100360002DE523252DF582E522352CF5831200039A
:10037000F58075A00375A0020523E5237002052210
:10038000E52324F9E52234FF5002800280D3E52FD3
:100390002405F58075A00175A000E4F524F525E598
:1003A0002524FEE52434FF500280028002801F7560
:1003B000801475A00375A0020525E52570020524AB
:1003C000E52524FEE52434FF5002800280E1E4F5B7
:1003D00022F523E52324F9E52234FF500280028030
:1003E00002802DE523252DF582E522352CF583129B
:1003F0000003F58075A00375A0020523E5237002B4
:100400000522E52324F9E52234FF5002800280D33F
:10041000E52F2407F58075A00175A000E4F524F50B
:1004200025E52524FEE52434FF5002800280028069
:100430001F75801475A00375A0020525E5257002BF
:100440000524E52524FEE52434FF5002800280E1E6
:10045000E4F522F523E52324F9E52234FF50028058
:10046000028002802DE523252DF582E522352CF52D
:1004700083120003F58075A00375A0020523E52310
:1004800070020522E52324F9E52234FF50028002A0
:1004900080D3E52F2409F58075A00175A000E4F54F
:1004A00024F525E52524FEE52434FF500280028052
:1004B00002801F75801475A00375A0020525E5252F
:1004C00070020524E52524FEE52434FF5002800255
:1004D00080E1E4F522F523E52324FBE52234FF50F7
:1004E0000280028002802DE523252DF582E522354C
:1004F0002CF583120003F58075A00375A002052377
:10050000E52370020522E52324FBE52234FF500297
:10051000800280D3E52F240BF58075A00175A00023
:10052000E4F524F525E52524FEE52434FF5002807A
:10053000028002801F75801475A00375A002052536
:10054000E52570020524E52524FEE52434FF50024C
:10055000800280E1E4F522F523E52324FDE5223441
:10056000FF500280028002802DE523252DF582E5D3
:1005700022352CF583120003F58075A00375A002C7
:100580000523E52370020522E52324FDE52234FF3F
:100590005002800280D3E52F240DF58075A00175EF
:1005A000A000E4F524F525E52524FEE52434FF50DC
:1005B0000280028002801F75801475A00375A0025E
:1005C0000525E52570020524E52524FEE52434FFF4
:1005D0005002800280E1E4F522F523E52324FFE5C3
:1005E0002234FF500280028002802DE523252DF564
:1005F00082E522352CF583120003F58075A0037582
:10060000A0020523E52370020522E52324FFE5224D
:1006100034FF5002800280D3E52F240FF58075A0AF
:100620000175A00075801475A00375A002020183F6
:04063000220201148D
:00000001FF
