:100000000200F10200EE75220175233478017900B7
:100010007A007B247D057C001201C4780179057A81
:10002000007B297D057C001201C47801790A7A00E1
:100030007B2E7D187C001201C4752000E52024FC75
:100040005002800280030200EA7429A92078002966
:10005000F987B0752100E52124FD5002800280025D
:10006000807B7424A921780029F9E7B59063758015
:100070003875A00175A00075808075A00175A0007D
:10008000E52175F004A42520500205F0A8F0A9E0B0
:10009000E9C333F9E833F8742E29F9872209872355
:1000A000752000E52024FE5002800280028022E5B7
:1000B000202523F582E43522F58312013BF5807576
:1000C000A00375A0020520E52024FE5002800280D6
:1000D000DE0521E52124FD5002800280850520E512
:1000E0002024FC5002800302004902003922020051
:0400F000060201EF14
:10010000FEFDFBF7EF1E1D1B170F013501320130FD
:10011000012E012C012A0128012601240122013986
:10012000013739003800370036003500340033001D
:10013000320031003030002D002B00E5836003E4F5
:100140009322A882E622E5836004E4938003A882D8
:10015000E6F822E5836004E4938003A882E6F922AE
:10016000E5836004E4938003A882E6FA22E58360D5
:1001700004E4938003A882E6FB22E5836004E49311
:100180008003A882E6FC22E5836004E4938003A850
:1001900082E6FD22E5836004E4938003A882E6FE04
:1001A00022E5836004E4938003A882E6FF2289822B
:1001B00088838B00EC4D6036E4E0F608A31DBDFF9C
:1001C000F31C80F0B800118B00EC4D6021E7F609BC
:1001D000081DBDFFF41C80F1898288838B00EC4DE3
:1001E000600CE493F608A31DBDFFF31C80F022E42D
:1001F000F5D075814678207A26F608DAFC120003DD
:03020000020000F9
:00000001FF
