:100000000200BF8063780179007A007B227D0B7C3F
:1000100000120080792C879030B0028002804275F7
:100020002000E52024F650028002800280337422F2
:10003000A920780029F987A0752100E521249C508A
:100040000280028002800E80000521E521249C5060
:1000500002800280F20520E52024F6500280028012
:10006000CD792C87A080B122809B898288838B00E8
:10007000EC4D6036E4E0F608A31DBDFFF31C80F0F4
:10008000B800118B00EC4D6021E7F609081DBDFF9B
:10009000F41C80F1898288838B00EC4D600CE49322
:1000A000F608A31DBDFFF31C80F022E4F5D0758196
:1000B0002D78207A0DF608DAFC1200030200000207
:0200C00000AB93
:0B0100009080F8829299B0A4F9C0FF33
:00000001FF
